{
  "contractName": "TimeLockedWallet",
  "abi": [
    {
      "inputs": [],
      "stateMutability": "nonpayable",
      "type": "constructor"
    },
    {
      "anonymous": false,
      "inputs": [],
      "name": "Deposit",
      "type": "event"
    },
    {
      "anonymous": false,
      "inputs": [
        {
          "indexed": true,
          "internalType": "address",
          "name": "previousOwner",
          "type": "address"
        },
        {
          "indexed": true,
          "internalType": "address",
          "name": "newOwner",
          "type": "address"
        }
      ],
      "name": "OwnershipTransferred",
      "type": "event"
    },
    {
      "anonymous": false,
      "inputs": [],
      "name": "WalletLocked",
      "type": "event"
    },
    {
      "anonymous": false,
      "inputs": [],
      "name": "Withdraw",
      "type": "event"
    },
    {
      "inputs": [],
      "name": "currentStage",
      "outputs": [
        {
          "internalType": "enum TimeLockedWallet.Stage",
          "name": "",
          "type": "uint8"
        }
      ],
      "stateMutability": "view",
      "type": "function",
      "constant": true
    },
    {
      "inputs": [],
      "name": "owner",
      "outputs": [
        {
          "internalType": "address",
          "name": "",
          "type": "address"
        }
      ],
      "stateMutability": "view",
      "type": "function",
      "constant": true
    },
    {
      "inputs": [],
      "name": "renounceOwnership",
      "outputs": [],
      "stateMutability": "nonpayable",
      "type": "function"
    },
    {
      "inputs": [
        {
          "internalType": "address",
          "name": "newOwner",
          "type": "address"
        }
      ],
      "name": "transferOwnership",
      "outputs": [],
      "stateMutability": "nonpayable",
      "type": "function"
    },
    {
      "inputs": [],
      "name": "getBalance",
      "outputs": [
        {
          "internalType": "uint256",
          "name": "",
          "type": "uint256"
        }
      ],
      "stateMutability": "view",
      "type": "function",
      "constant": true
    },
    {
      "inputs": [
        {
          "internalType": "address payable",
          "name": "_beneficiary",
          "type": "address"
        }
      ],
      "name": "addBeneficiaries",
      "outputs": [],
      "stateMutability": "nonpayable",
      "type": "function"
    },
    {
      "inputs": [
        {
          "internalType": "uint256",
          "name": "_unlockTime",
          "type": "uint256"
        }
      ],
      "name": "setUnlockTime",
      "outputs": [],
      "stateMutability": "nonpayable",
      "type": "function"
    },
    {
      "inputs": [],
      "name": "getRemainingTime",
      "outputs": [
        {
          "internalType": "uint256",
          "name": "",
          "type": "uint256"
        }
      ],
      "stateMutability": "view",
      "type": "function",
      "constant": true
    },
    {
      "inputs": [],
      "name": "deposit",
      "outputs": [],
      "stateMutability": "payable",
      "type": "function",
      "payable": true
    },
    {
      "inputs": [],
      "name": "lockWallet",
      "outputs": [],
      "stateMutability": "nonpayable",
      "type": "function"
    },
    {
      "inputs": [],
      "name": "withdraw",
      "outputs": [],
      "stateMutability": "payable",
      "type": "function",
      "payable": true
    }
  ],
  "bytecode": "0x608060405234801561001057600080fd5b50600061002464010000000061007d810204565b60008054600160a060020a031916600160a060020a0383169081178255604051929350917f8be0079c531659141344cd1fd0a4f28419497f9722a3daafe3b4186f6b6457e0908290a3506002805460ff19169055610081565b3390565b610902806100906000396000f3fe6080604052600436106100b9576000357c0100000000000000000000000000000000000000000000000000000000900480638da5cb5b116100815780638da5cb5b1461013f5780639252d73b14610161578063d0e30db014610181578063dace455714610189578063efb98bcf146101a9578063f2fde38b146101be576100b9565b806312065fe0146100be5780631debb253146100e95780633ccfd60b146101005780635bf5d54c14610108578063715018a61461012a575b600080fd5b3480156100ca57600080fd5b506100d36101de565b6040516100e0919061083d565b60405180910390f35b3480156100f557600080fd5b506100fe6101e3565b005b6100fe6102bc565b34801561011457600080fd5b5061011d6103f4565b6040516100e09190610780565b34801561013657600080fd5b506100fe6103fd565b34801561014b57600080fd5b50610154610496565b6040516100e0919061076c565b34801561016d57600080fd5b506100fe61017c366004610731565b6104a5565b6100fe610579565b34801561019557600080fd5b506100fe6101a4366004610754565b6105d8565b3480156101b557600080fd5b506100d3610611565b3480156101ca57600080fd5b506100fe6101d9366004610731565b61065a565b303190565b6101eb61072d565b600160a060020a03166101fc610496565b600160a060020a03161461022e5760405160e560020a62461bcd02815260040161022590610808565b60405180910390fd5b303115801590610265575060006002805460ff16908111156102635760e060020a634e487b7102600052602160045260246000fd5b145b61026e57600080fd5b6002805460ff191660011790556040517fd550ed24c5d3906c5831b36940c8eb789771469024f7963da735aaf15c59b9a290600090a160035442106102ba576002805460ff1916811790555b565b6102c461072d565b600160a060020a03166102d5610496565b600160a060020a0316146102fe5760405160e560020a62461bcd02815260040161022590610808565b6002805460ff16818111156103265760e060020a634e487b7102600052602160045260246000fd5b1461033057600080fd5b600154600090610341903031610846565b905060005b6001548110156103c757600181815481106103745760e060020a634e487b7102600052603260045260246000fd5b6000918252602082200154604051600160a060020a039091169184156108fc02918591818181858888f193505050501580156103b4573d6000803e3d6000fd5b50806103bf81610880565b915050610346565b506040517f57ea89b6814fccbbe8728fa89cc8e6b5477e559b2a34e946e105b11112e94b5890600090a150565b60025460ff1681565b61040561072d565b600160a060020a0316610416610496565b600160a060020a03161461043f5760405160e560020a62461bcd02815260040161022590610808565b60008054604051600160a060020a03909116907f8be0079c531659141344cd1fd0a4f28419497f9722a3daafe3b4186f6b6457e0908390a36000805473ffffffffffffffffffffffffffffffffffffffff19169055565b600054600160a060020a031690565b6104ad61072d565b600160a060020a03166104be610496565b600160a060020a0316146104e75760405160e560020a62461bcd02815260040161022590610808565b60006002805460ff16908111156105115760e060020a634e487b7102600052602160045260246000fd5b1461051b57600080fd5b6001805480820182556000919091527fb10e2d527612073b26eecdfd717e6a320cf44b4afac2b0732d9fcbe2b7fa0cf601805473ffffffffffffffffffffffffffffffffffffffff1916600160a060020a0392909216919091179055565b60006002805460ff16908111156105a35760e060020a634e487b7102600052602160045260246000fd5b146105ad57600080fd5b6040517fed21248cb703b524cc0029bb8669df941baca560163a3bc6ad184e7e9c26807090600090a1565b60006002805460ff16908111156106025760e060020a634e487b7102600052602160045260246000fd5b1461060c57600080fd5b600355565b600060016002805460ff169081111561063d5760e060020a634e487b7102600052602160045260246000fd5b1461064757600080fd5b426003546106559190610869565b905090565b61066261072d565b600160a060020a0316610673610496565b600160a060020a03161461069c5760405160e560020a62461bcd02815260040161022590610808565b600160a060020a0381166106c55760405160e560020a62461bcd028152600401610225906107ab565b60008054604051600160a060020a03808516939216917f8be0079c531659141344cd1fd0a4f28419497f9722a3daafe3b4186f6b6457e091a36000805473ffffffffffffffffffffffffffffffffffffffff1916600160a060020a0392909216919091179055565b3390565b600060208284031215610742578081fd5b813561074d816108b4565b9392505050565b600060208284031215610765578081fd5b5035919050565b600160a060020a0391909116815260200190565b60208101600383106107a55760e060020a634e487b7102600052602160045260246000fd5b91905290565b60208082526026908201527f4f776e61626c653a206e6577206f776e657220697320746865207a65726f206160408201527f6464726573730000000000000000000000000000000000000000000000000000606082015260800190565b6020808252818101527f4f776e61626c653a2063616c6c6572206973206e6f7420746865206f776e6572604082015260600190565b90815260200190565b6000826108645760e060020a634e487b710281526012600452602481fd5b500490565b60008282101561087b5761087b61089b565b500390565b60006000198214156108945761089461089b565b5060010190565b60e060020a634e487b7102600052601160045260246000fd5b600160a060020a03811681146108c957600080fd5b5056fea26469706673582212201b910bc22081e42576148216aea802f1878b0296e94500300f4daee58ebe797e64736f6c63430008000033",
  "immutableReferences": {},
  "source": "//SPDX-License-Identifier: MIT\"\n\npragma solidity ^0.8.0;\n\nimport \"@openzeppelin/contracts/access/Ownable.sol\";\n\ncontract TimeLockedWallet is Ownable{\n\n    address payable[] beneficiaries;\n\n    enum Stage {Created, Locked, Release}\n    Stage public currentStage;\n\n    uint256 unlockTime;\n\n    event Deposit();\n    event WalletLocked();\n    event Withdraw();\n\n\n    constructor() {\n        currentStage = Stage.Created;\n    }\n\n    function getBalance() public view returns(uint256){\n        return (address(this).balance); \n    }\n\n    function addBeneficiaries(address payable _beneficiary) public onlyOwner{\n        require(currentStage == Stage.Created);\n        beneficiaries.push(_beneficiary);\n    }\n\n    function setUnlockTime(uint256 _unlockTime) public{\n        require(currentStage == Stage.Created);\n        unlockTime =_unlockTime;\n    }\n\n    function getRemainingTime() public view returns (uint256){\n        require(currentStage == Stage.Locked);\n        return unlockTime - block.timestamp;\n    }\n\n    //Deposit money in Wallet\n    function deposit() public payable{\n        require(currentStage == Stage.Created);\n        emit Deposit();\n    }\n\n    function lockWallet() public onlyOwner{\n        require(address(this).balance > 0 && currentStage == Stage.Created);\n        currentStage = Stage.Locked;\n        emit WalletLocked();\n        if(block.timestamp >= unlockTime){\n            currentStage = Stage.Release;\n        }\n    }\n\n    function withdraw() public payable onlyOwner{\n        require(currentStage == Stage.Release);\n        uint256 value = (address(this).balance / beneficiaries.length);\n        \n        for(uint i=0; i < beneficiaries.length; i++){\n            beneficiaries[i].transfer(value);\n        }\n\n        emit Withdraw();\n    }\n    \n}",
  "sourcePath": "/home/conbon/Documents/TimeLockedWallet/contracts/TimeLockedWallet.sol",
  "compiler": {
    "name": "solc",
    "version": "0.8.0+commit.c7dfd78e.Emscripten.clang"
  },
  "schemaVersion": "3.4.1",
  "updatedAt": "2021-05-22T16:11:01.840Z",
  "networkType": "ethereum",
  "devdoc": {
    "kind": "dev",
    "methods": {
      "owner()": {
        "details": "Returns the address of the current owner."
      },
      "renounceOwnership()": {
        "details": "Leaves the contract without owner. It will not be possible to call `onlyOwner` functions anymore. Can only be called by the current owner. NOTE: Renouncing ownership will leave the contract without an owner, thereby removing any functionality that is only available to the owner."
      },
      "transferOwnership(address)": {
        "details": "Transfers ownership of the contract to a new account (`newOwner`). Can only be called by the current owner."
      }
    },
    "version": 1
  },
  "userdoc": {
    "kind": "user",
    "methods": {},
    "version": 1
  }
}